:020000022000DC
:1060000000000120B5620200DD620200DF620200D2
:10601000E1620200E3620200E562020000000000AB
:10602000000000000000000000000000E762020025
:10603000E962020000000000EB620200ED62020073
:10604000CD8C0200EF62020025920200EF62020096
:10605000EF620200EF620200398D02007D720200E1
:10606000EF620200EF620200EF620200EF620200E4
:10607000EF620200EF620200EF620200EF620200D4
:106080005D71020031770200EF620200EF620200F0
:10609000D1770200EF62020099DB0200EF6202009A
:1060A000EF620200EF620200EF620200EF620200A4
:1060B000EF620200EF62020000000000000000003A
:1060C000EF620200EF620200EF620200EF62020084
:1060D000EF620200EF620200EF62020000000000C7
:1060E00000000000000000000000000000000000B0
:1060F00000000000000000000000000000000000A0
:10610000000000000000000000000000000000008F
:10611000000000000000000000000000000000007F
:10612000000000000000000000000000000000006F
:10613000000000000000000000000000000000005F
:10614000000000000000000000000000000000004F
:10615000000000000000000000000000000000003F
:10616000000000000000000000000000000000002F
:10617000000000000000000000000000000000001F
:10618000000000000000000000000000000000000F
:1061900000000000000000000000000000000000FF
:1061A00000000000000000000000000000000000EF
:1061B00000000000000000000000000000000000DF
:1061C00000000000000000000000000000000000CF
:1061D00000000000000000000000000000000000BF
:1061E00000000000000000000000000000000000AF
:1061F000000000000000000000000000000000009F
:1062000010B5054C237833B9044B13B10448AFF3F0
:1062100000800123237010BD802D002000000000AD
:10622000701D030008B5034B1BB103490348AFF3CE
:10623000008008BD00000000842D0020701D0300B8
:10624000154B002B08BF134B9D46A3F5803A002148
:106250008B460F461348144A121A07F091FE0F4B53
:10626000002B00D098470E4B002B00D09847002001
:10627000002104000D000D48002802D00C48AFF3A7
:10628000008007F03DFE2000290003F0FDFB07F031
:1062900023FE00BF000008000000012000000000F5
:1062A00000000000802D0020A83D0020000000001C
:1062B000000000000649074A074B9B1A03DD043B18
:1062C000C858D050FBDC02F071FAFFF7B9FF0000AC
:1062D000681E0300E0290020802D0020FEE7FEE775
:1062E000FEE7FEE7FEE7FEE7FEE7FEE7FEE7FEE786
:1062F000704700BF00B583B0044B0093044A4023AD
:1063000000F036F803B05DF804FB00BF156302002F
:10631000A02D002002B32DE9F843114B114E884601
:10632000144643F0010903270025224608EB050126
:10633000002006F0D7F803461D444FF47A40E41AD3
:1063400023B9337833B1C847013F06D001233370F6
:10635000002CEAD1BDE8F88370473770BDE8F883B8
:10636000C00603009C2D0020704700BF06F098B9BE
:10637000F0B595B000241D460E460846174602F0BB
:106380000DF9304623460822099505A91A9D08975C
:106390000D950A948DF82C400C9402F05BF99DF851
:1063A00014308DF81140DDE9061003F00302012AD4
:1063B000CDE9020128D0022A04D0304602F0F2F8DA
:1063C00015B0F0BDBDF81650C3F3C2038DF8103000
:1063D000C5F389150827082D2C4628BF08243B46FD
:1063E00022460EA9304602F035F92D1B214608AB96
:1063F00002AA0EA8274400F037FE002DEBD130464C
:1064000002F0D0F815B0F0BDBDF81470059DC7F3CB
:106410008312C3F3C2040EA93046920008238DF8FC
:106420001040C7F3831702F015F9C5F3952508ABA3
:106430003A4628460EA9009302AB00F09DFD304677
:1064400002F0B0F815B0F0BD10B5054CFFF78EFFA7
:106450002046042100F014FD0123637210BD00BF2B
:10646000E029002038B5104B1048FF2200240025F9
:1064700001219A60C3E900450022C3F8182483F87B
:106480002014C3F8142402F03DF858B9084A094B07
:10649000D21AD20806D00849034621F82330013326
:1064A0009A42FAD138BD00BFB02E0020101E030062
:1064B000101E0300801D0300382D002099B10E4BE3
:1064C0000E495B1ADB0815D030B400220C4D02E0F7
:1064D000013293420BD035F822408442F8D151F872
:1064E000320030BC7047054951F830007047002039
:1064F00030BC704718467047101E0300801D030013
:106500003A2D0020094B013903EBC00003290BD8B9
:10651000DFE801F0040208060420704702207047FB
:10652000407970470079704700207047801D030054
:106530002DE9F0478E4CD4E900239A4284B05FD015
:106540000023C4F81834BFF34F8FD4E90125236822
:1065500002EA0506F11C04EB8101087887072ED0BA
:1065600010F004073BD104EB8606511CF36801933D
:10657000294004EB810103F00303C9680291022B57
:1065800002F1020675D0012B3ED0D4F8105435B17B
:106590002B6828469B6898476D68002DF8D1754B8D
:1065A00075491888000440F0020000F0EBF8D4E9C7
:1065B0000030C01A18BF012004B0BDE8F0874607BC
:1065C0000DD448880988013202EB901202EB911237
:1065D0009342BDD80020636004B0BDE8F08700F0AE
:1065E0000300012806D00228F2D14988023202EBCA
:1065F0009112EDE709880232C1F383110A44E7E7FB
:10660000002004B0BDE8F087BDF804305B48C3F358
:106610008312062A28BF0622911C62F3891389007F
:10662000ADF8043001F070FF80460028ADD001F0D5
:10663000B5FF3B46082201A9404601F0DFFFBDF847
:10664000043013F4707F56D031462940BB0003312B
:10665000083304EB81010422404601F0CFFFBDF86E
:1066600004300137C3F38313BB4206F10106EBD8B4
:1066700041E0BDF806304148C3F38919B9F1500F24
:10668000CA4628BF4FF0500A6AF38F130AF1080177
:10669000ADF8063001F038FF804600283FF475AFB2
:1066A00001F07CFF3B46082201A9404601F0A6FF0D
:1066B00025EA06030133BAEB830F4FEA83074CD96F
:1066C000002F43D006EA05010331AAEB070A04EBC9
:1066D000810108233A4640465FFA8AFA01F08EFFAC
:1066E0002749524607F10803404601F087FF09F1A8
:1066F000030906EB9906D4F818341BBBD4F81054E0
:106700004DB16B7A28464146C3B12B681B68984748
:106710006D68002DF5D1404601F044FF00230DF1D6
:1067200003008DF8033001F0FFFAD4F8183403B9F0
:1067300066609DF8030001F01DFB38E76D68002DD1
:10674000DFD1E8E7404601F02DFF30E70C49524623
:106750000823404601F052FFC9E706EA050103316C
:1067600004EB810152460823404601F047FFBEE793
:10677000B02E0020582D0020D4060300101E030068
:10678000BC2E00202DE9F04F614C87B00023064657
:106790000DF10B008DF80B30A568884601F0C4FAA6
:1067A000D4E9012327681A440132D21B012A7FD879
:1067B00004F21C4904F5836B04F2144A31E01EF024
:1067C000040C5DD104EB800003F1010EC26803925A
:1067D0000EEA010104EB810102F00302012AC968FB
:1067E00003F1020345D0022A41D1BDF80E20C2F3C5
:1067F00089120332090C03EB92035046CDE90013D2
:1068000001F00AFB009980B3019B6360484601F0E8
:10681000D7FAD4E90113226819440131891A0129F0
:1068200047D80121484601F0CBFA584601F0E4FA76
:10683000504601F0E1FAD4E9013103EA0100C21C3B
:1068400004EB820292F800E01EF0030FB7D11EF0B5
:10685000040F03F1010C13D1538812880CEB93132E
:1068600003EB921303EA0100E9E74846CFE76146EC
:10687000C3E7BDF80C20C2F38312090C1344BCE734
:106880000EF0030EBEF1010F0AD0BEF1020F03F1AC
:10689000020CD4D153880CEB931303EA0100CEE72A
:1068A00012880233C2F38312134403EA0100C6E7DD
:1068B0003A4613400333023205219DF80B0044F899
:1068C0002310226001F056FA0021124801F06AFA02
:1068D00080F31000F1007B1C2B4001F038013D409B
:1068E00004EB830341F001010004033540EA16463E
:1068F00041EA8821DE6044F8251094F820341BB169
:10690000FFF716FE0028FBD107B0BDE8F08F00BFEF
:10691000B02E0020CC3200202DE9F04FDFF8A4B1DA
:1069200089B0002306460DF1130017468DF8133089
:10693000DBF80840039101F0F7F9DBE90123DBF80C
:1069400000501A440132521B022A00F282800BF2DC
:106950001C480BF5836A0BF2144933E01EF0040C5B
:106960005FD10BEB800003F1010EC26805920EEAC5
:1069700001010BEB810102F00302012AC96803F156
:10698000020347D0022A43D1BDF81620C2F3891270
:106990000332090C03EB92034846CDE9013101F0C3
:1069A0003BFA029990B3019BCBF80430404601F0CA
:1069B00007FADBE90113DBF8002019440131891AD9
:1069C000022947D80121404601F0FAF9504601F06A
:1069D00013FA484601F010FADBE9013103EA01003D
:1069E000C21C0BEB820292F800E01EF0030FB5D13F
:1069F0001EF0040F03F1010C13D1538812880CEB25
:106A0000931303EB921303EA0100E9E74046CEE754
:106A10006146C1E7BDF81420C2F38312090C134488
:106A2000BAE70EF0030EBEF1010F0AD0BEF1020F5D
:106A300003F1020CD4D153880CEB931303EA010049
:106A4000CEE712880233C2F38312134403EA010033
:106A5000C6E72A4613400333033245219DF813004D
:106A60004BF82310CBF8002001F084F9AB1C234035
:106A70000BEB830300211248DF6001F093F980F3F0
:106A80001000F1006B1C2340039A01F038012C40E8
:106A90000BEB830341F041010004033440EA164646
:106AA00041EA8221DE604BF824109BF820341BB1B0
:106AB000FFF73EFD0028FBD109B0BDE8F08F00BF15
:106AC000CC320020B02E00202DE9F04F684C89B068
:106AD000002607460DF11300CDE902238DF813605F
:106AE000A568884601F020F9D4E9012326681A44F4
:106AF0000132921B032A7FD804F21C4904F5836BF0
:106B000004F2144A31E01EF0040C5DD104EB800065
:106B100003F1010EC26805920EEA010104EB810146
:106B200002F00302012AC96803F1020345D0022AD8
:106B300041D1BDF81620C2F389120332090C03EBD0
:106B400092035046CDE9001301F066F9009980B335
:106B5000019B6360484601F033F9D4E901132268D0
:106B600019440131891A032947D80121484601F007
:106B700027F9584601F040F9504601F03DF9D4E9B3
:106B8000013103EA0100C21C04EB820292F800E02A
:106B90001EF0030FB7D11EF0040F03F1010C13D147
:106BA000538812880CEB931303EB921303EA010052
:106BB000E9E74846CFE76146C3E7BDF81420C2F3D2
:106BC0008312090C1344BCE70EF0030EBEF1010F53
:106BD0000AD0BEF1020F03F1020CD4D153880CEBA2
:106BE000931303EA0100CEE712880233C2F3831243
:106BF000134403EA0100C6E732461340033304326C
:106C000085219DF8130044F82310226001F0B2F8AA
:106C1000B21C2A40F31C2B4004EB820204EB830CD1
:106C2000029BD3600021039B1248CCF80C3001F08A
:106C3000B9F880F31000F900731C2B4001F0380103
:106C4000354004EB830341F081010004033540EA41
:106C5000174741EA8821DF6044F8251094F8203472
:106C60001BB1FFF765FC0028FBD109B0BDE8F08F30
:106C7000B02E0020CC3200202DE9F04F8FB01F46FF
:106C8000CDE908270392199A7B4C0B921A9A189E09
:106C90000C9200231B9A0A9680460DF113000D9268
:106CA0008DF81330A568029101F03EF8D4E9012374
:106CB00026681A440132921B072A7FD804F21C4925
:106CC00004F5836B04F2144A31E01EF0040C5DD12C
:106CD00004EB800003F1010EC26805920EEA010187
:106CE00004EB810102F00302012AC96803F10203E7
:106CF00045D0022A41D1BDF81620C2F389120332D1
:106D0000090C03EB92035046CDE9003101F084F801
:106D1000019980B3009B6360484601F051F8D4E9C3
:106D20000113226819440131891A072947D8012122
:106D3000484601F045F8584601F05EF8504601F02B
:106D40005BF8D4E9013103EA0100C21C04EB8202C2
:106D500092F800E01EF0030FB7D11EF0040F03F10C
:106D6000010C13D1538812880CEB931303EB92138D
:106D700003EA0100E9E74846CFE76146C3E7BDF80B
:106D80001420C2F38312090C1344BCE70EF0030E67
:106D9000BEF1010F0AD0BEF1020F03F1020CD4D1F3
:106DA00053880CEB931303EA0100CEE712880233F9
:106DB000C2F38312134403EA0100C6E732461340CC
:106DC0000333083240F285119DF8130044F8231074
:106DD000226000F0CFFFB01C2840F11C06F1040C2B
:106DE000B31D2B4029400CEA050C04EB8000721DFA
:106DF0002A4004EB810104EB8C0C04EB8309039B18
:106E0000C36004EB8202189BCF6006F1070ECCF83A
:106E10000C300EEA050E199BD36004EB8E0E1A9B04
:106E2000C9F80C3000211B9B1448CEF80C3000F040
:106E3000B9FF80F310004FEAC80101F03801731C5C
:106E40002B40029A41F4C071354004EB830341F0BA
:106E500001010004033540EA184041EA8221D8606C
:106E600044F8251094F820341BB1FFF761FB00288B
:106E7000FBD10FB0BDE8F08FB02E0020CC32002047
:106E800030B4124DD5F810140446002069B10B46F9
:106E900001E05B684BB11A7A8242FAD101300A28CC
:106EA000F4D14FF0FF3030BC70472072D5F8103469
:106EB00033B15B686360D5F810345C6030BC7047F8
:106EC000C5F81044636030BC704700BFB02E00208E
:106ED00038B5084BD3F81044012583F820543CB151
:106EE0002368657220465B6898476468002CF7D178
:106EF00038BD00BFB02E002030B5C38885B0044631
:106F00000D461BBB217A05291ED0627A82B9134A2D
:106F1000A08852F8212003920021FFF7CFFA039AAC
:106F20000F490346284605B0BDE8304000F0F0BFE9
:106F3000A088FFF7E7FA0B4B0B4953F820202846AF
:106F400000F0E6FF217AE2E705B030BD074A009283
:106F50000749084A284600F0DBFFD3E7CC070300C7
:106F60002C070300A80703002807030020070300DD
:106F700008070300000703002DE9F04385B04FF038
:106F8000000C0C9C814694F80C8084F80CC00E46D2
:106F90001746184621461D46FFF7AEFF062F09D8B3
:106FA000DFE807F0042E343B444F1F0049462046DB
:106FB00000F0AEFF2B7A052B05D06B7A5BB9274921
:106FC000204600F0A5FF204600F096FF84F80C80D4
:106FD00005B0BDE8F083224A2249204600F098FF20
:106FE000EDE7D6E90413F2680393B3680291CDE9A3
:106FF00000324946D6E90023204600F089FFD9E750
:1070000032684946204600F083FFD3E7D6E90023E3
:107010004946204600F07CFFCCE7B3680093D6E9F0
:1070200000234946204600F073FFC3E7D6E9023249
:1070300001920093D6E900234946204600F068FFFC
:10704000B8E7D6E90321B3680291CDE90032494699
:10705000D6E90023204600F05BFFABE738070300CA
:107060002007030028070300082900D970472DE9ED
:10707000F04F9B4683B000241B7B8BF80C400D46E1
:1070800006465946104690460193DFF8C8902A4FAD
:10709000FFF732FF05E0325D013400F039FF082CC4
:1070A00009D0A54239465846F5D84946013400F082
:1070B0002FFF082CF5D12149DFF89C90204F214C5F
:1070C000584600F025FF4FF0000A0EE016F80A209F
:1070D00012F807C01CF0970F08BF2E220AF1010A10
:1070E00000F016FFBAF1080F0BD05545214658465F
:1070F000ECD849460AF1010A00F00AFFBAF1080F7C
:10710000F3D198F80830052B02D098F8093063B90C
:107110000D49584600F0FCFE584600F0EDFE019B7C
:107120008BF80C3003B0BDE8F08F084A0849584688
:1071300000F0EEFEECE700BF3C0703004807030049
:107140005D1A03004C070300380703002007030003
:10715000280703004407030084150300084BD3F8F5
:107160000433DB070AD5074B074A002182B01960B8
:107170001B680193019B136802B01847704700BF5A
:107180000000014000010140DC32002030B4124B0D
:10719000124C1A782160DAB9114C017801251D7062
:1071A000C4F80C1543680F4D0F49DB03A5FB0353CF
:1071B0009B09C4F80435037A5B014FF48034DBB2D9
:1071C00081F81033C1F880410C60104630BC704724
:1071D000082030BC704700BFD8320020DC320020CD
:1071E00000000140D34D621000E100E0044B05496E
:1071F00001220220C3F804231A600870704700BF00
:1072000000000140D832002030B583B0054600248C
:107210000DF107008DF8074000F086FD0F4A136856
:10722000072B12D80E492B70581C1060D1F8080596
:10723000012202FA03F30343C1F808359DF8070061
:1072400000F098FD204603B030BD9DF8070000F027
:1072500091FD0424204603B030BD00BFD43200208D
:1072600000000140034B044A00F5C07043F82020A1
:10727000704700BF000001403546526E2DE9F041D5
:10728000644B1A6888B002BB634F97F82E30002B0E
:1072900029D1624B1A685AB100221A601B68039305
:1072A00002218DF814103B6803993A7405A8984799
:1072B0005B4B1C68002C30D000221A601B680593C1
:1072C000059B3A7408B0BDE8F081534F00221A6064
:1072D000196897F82E3000910099002B4ED097F83E
:1072E0002F30002B63D14F4B1A68002AD1D00021D8
:1072F0001960186897F82D207B8B019093420198B4
:1073000094B263D874D0434B474A002119601B687C
:107310000293012302991360BBE77E69002ED1D04E
:107320004FF000480125B6FA86F101F146039B00B3
:1073300003F1804202F5E042A3F58C73D2F800E03D
:1073400083F0040028FA01F1C0F3800CDB0805A8E3
:1073500026EA0106BEF1000F0BD0146012680492F9
:107360008DF818308DF814503B688DF819C0049AC8
:107370009847002ED7D108B0BDE8F081FA68786848
:1073800039898DF814300690ADF81C10002A2CD0E5
:107390002648398B7A600122FB607983398102604B
:1073A0003B6805A89847002387F82F306DE7FB68F6
:1073B000786839898DF814200690ADF81C10A3B1B7
:1073C000398B7B60FA6079833981E9E7398978689C
:1073D0001B1B9BB289B2154C7B83C91A00EB410180
:1073E000C4F82C16C4F830268DE700233B74D7E789
:1073F000FB684BB10D487983012187F82F10C0F845
:107400002C36C0F830267EE701227B8387F82F20B8
:1074100079E700BF04710040E032002010710040A5
:107420001471004000710040047000400070004082
:10743000214B93F82C20002A3CD170B41F4C0578C6
:107440001960C4F8F05545781D49C4F8F4556FF03B
:1074500000451A74C678C4F8085383B00A600968F6
:10746000184D019101992A60817883F82E602D686A
:1074700015480095490183F82D205A6183F82F2083
:10748000C9B28022F5B2009E80F80713C0F88021AF
:10749000022102600122C4F8041383F82C200DB1EC
:1074A000C4F80423054B01220020C3F8002503B0D3
:1074B00070BC704708207047E03200200070004028
:1074C000047100400071004000E100E0364A137C86
:1074D000002B66D1F0B40C79012C54D900F10C05C5
:1074E00002EB45031B7923B992F82D30013382F862
:1074F0002D304B788E7891F800C04F791B01360201
:1075000006F4E06603F030033343CE780CF0030C4E
:10751000360306F4805643EA0C0333438E793F0565
:1075200007F48017360602EB450206F080761F4D01
:1075300024043B4304F4E0243343234305EB0016C7
:10754000CC79147100010C7A547100F18040C6F8B6
:10755000183500F5E040CB790A7AC0F81425C0F858
:107560001035CB790A7AC0F81425C0F810350B799C
:10757000012B02D90020F0BC70470123C5F800356B
:107580000020F0BC704703F0FF05084BC3F800551E
:1075900000F10C0502EB45030C791B79002BA8D1F7
:1075A000A2E71120704700BFE032002000700040C9
:1075B000F0B42D4D2D4B1222C5F808231C7C022C53
:1075C00082B04BD01A7C012A24D093F82E20586028
:1075D000022701240026C5F804731C74DE6019819B
:1075E0006AB9234BC5F82C06C5F830161A601B681B
:1075F0000193019B2C60104602B0F0BC704793F8D9
:107600002D20C5F82C0630465983C5F8302602B027
:10761000F0BC7047DA6832B102231120C5F8043398
:1076200002B0F0BC704793F82E20D86019836AB975
:107630000F4A1368002BFCD00023136012680A4B1A
:107640000092009AC3F82C06C3F83016064B0222AB
:107650000020C3F8042302B0F0BC70471120C5F825
:10766000042302B0F0BC704700700040E0320020FC
:1076700000710040084A137C012BD9B201D00820C8
:10768000704792F82E0018B1044B00201960704723
:10769000034B1960704700BFE032002000700040CB
:1076A0000470004000B585B00346002101AA44F2F1
:1076B0000100CDE90111039300F004F805B05DF875
:1076C00004FB00BF10B572B6FFF702FCFEF730FFF7
:1076D0000028FBD1104C11492088000440F0010023
:1076E000FFF750F80E4B1B68DB0700D500BE208863
:1076F0000C49000440F00200FFF744F8BFF34F8F3D
:1077000009490A4BCA6802F4E0621343CB60BFF335
:107710004F8F00BFFDE700BF582D0020F00703008A
:10772000F0ED00E0FC07030000ED00E00400FA05C6
:10773000F8B52049204B0024C1F84041C1F844412C
:10774000C1F84841C1F84C41C1F80041C1F80441B9
:107750001B6833B31948D1F8045501681A686D1ACB
:1077600025F07F45AA4227460DD8197CDE69AD1A5F
:10777000144419B1D3E905201F7490471EB1334654
:107780001A68AA42F1D90E490E4A0B7812789A4229
:1077900008D00D490D4A41F823404FF48013C2F838
:1077A0000031F8BD531CDBB2022B08BF00230B7065
:1077B000EFE700BF00100140303400202C340020DF
:1077C00029340020283400202034002000E100E08B
:1077D0002DE9F04FB34AB44913780978994285B03E
:1077E00000F088810133DBB2022B08BF0023AF48D1
:1077F0001370AF4A0568DFF8D08252F82310D8F82A
:1078000000606B1823F07F430360002E00F0C181FD
:1078100000200746044684463346AE4613E0D86847
:10782000DD69C3F800C0891A144438B10EEB0402B4
:1078300022F07F42C3E90120DF611F460120002DB5
:1078400000F05F812B461A688A42E8D9002800F0D0
:107850008B81C8F800309946521A1A6001230093B0
:10786000944B954EDFF864A243F0010301934D461B
:107870004FF0000B002F31D0D7E901303C46FF69B3
:107880008A4ADFF84CC21268991A21F07F4161459B
:1078900000F2DD800B18236000220121C4E90122DF
:1078A000E2612174002D00F0F3802A689A4280F092
:1078B000E880294605E0D1F800E09E4580F0CF80C1
:1078C00072460846C9699C469B1A0029F3D1236079
:1078D000E161C4612C462546002FCDD17078337804
:1078E000984247D09C460CEB4C0CB27806EBCC0C83
:1078F000591CCBB29A429CF80420337004BF002379
:107900003370022ADCF8084024D0032A18D0012A58
:10791000E6D1227C002AE3D1DCF80C306360DCF88D
:107920001000A060DCF81410E1609AF800E0DCF8C8
:107930001810A161BEF1000FA2D0626013469FE74C
:10794000002DCDD000232B74ED69002DFBD1C8F89C
:107950000050C3E755B1AC4200F0BC802A4601E0BC
:10796000944239D01146D269002AF9D100222274FA
:107970009842B7D1BBF1000F01D1A94541D0002DEC
:1079800044D04A4A4D4B1468D3F804654C4FD5F89F
:1079900000803A78351B25F07F450335002A00F03A
:1079A000B580464AA8452CBF4444641924F07F445E
:1079B000C2F84045D2F804359B1BA41B23F07F433B
:1079C00024F07F440333A34200F2B98000238AF8F5
:1079D000003005B0BDE8F08F8C427DD0E0692268B0
:1079E000C861002858D0AC46036813440360AC4516
:1079F00052D0002233787078227465464FF0010B24
:107A0000B6E7009B002BE1D0002DBAD12B4E2D4ABA
:107A1000284C4FF400314FF480330127C2F8801016
:107A20003C43C6F848334FF43C60C6F808337760EF
:107A3000A0471E4BB7604FF43C601D60A047204B31
:107A40001D7000238AF8003005B0BDE8F08FD31A0E
:107A500023F07F4383420BD2C31A23601CE7724496
:107A6000A2EB0C020A602360E161C4612C4632E79C
:107A700000230122C4E90033A360E36122743DB115
:107A80002A68C8F80040D31A2B60E561254623E731
:107A9000C8F8004025461FE700223378707822742A
:107AA00066E700BF28340020293400202C34002051
:107AB0002034002010080300103300200010014083
:107AC0001D34002000E100E0303400201C34002090
:107AD000FEFF7F0029462A46D5F81CC0C8F800C022
:107AE000BCF1000F42D0D0691268C86100287FF451
:107AF0007BAF7CE7DFF8B4800027D8F800900097D0
:107B0000AEE6A946C8F800500090A9E62349244AE9
:107B10004FF48030C3F844034FF00109C3F8040365
:107B20004FF40030C1F8800142F001020860C3F850
:107B300000904FF43C60904787F8009031E7184B75
:107B4000D2F80415C2F8401543F001034FF43C602D
:107B50009847124B4FF40032C3F8002100238AF8F3
:107B6000003005B0BDE8F08FB14675E6CDE90221E1
:107B70000C4A0D4801239360C0F800C08AF8003019
:107B80004FF43C60019B9847DDE90221D8F800C022
:107B9000A9E70123B1463746009361E600E100E022
:107BA00010080300001001402C3400203034002065
:107BB0002DE9F8431F4D204E204FDFF898804FF4F9
:107BC00080334FF400324FF001090024C6F88020C2
:107BD00047EA0907C5F848334FF43C60C5F8083355
:107BE000C5F80490B847C5F808904FF43C60C8F851
:107BF0000040B847124A134B13491C601470134BD2
:107C0000134A0C700B2114701C8099704FF4801271
:107C1000E023C6F8802186F814333260C5F80845A1
:107C200086F81133D5F80435C8F800302046BDE891
:107C3000F88300BF0010014000E100E010080300DD
:107C40001D34002030340020283400201033002060
:107C5000293400202C340020074B9B783BB142B1E3
:107C600038B10368187C10B959745A6170470820FC
:107C700070470720704700BF103300202DE9F04304
:107C8000264EB37883B0002B3AD00446002837D074
:107C900004290D4638D9436993B3437C0027012B4F
:107CA0000DF107000CBF8846B84691468DF8077065
:107CB00000F03AF87378B0783278591CC9B288422B
:107CC00008BF39468A4223D003EB430306EBC303C4
:107CD0000120134A18719C60D2F804259DF8070012
:107CE0007170C3E90325C3E9058900F043F80D4B22
:107CF0004FF480123846C3F8002103B0BDE8F0838A
:107D0000082003B0BDE8F083072003B0BDE8F0838E
:107D10009DF8070000F02EF80420EEE71033002055
:107D20000010014000E100E070B4EFF3108472B67F
:107D30000D4B9A68AAB90D490D4E01259D60D1F8E9
:107D4000805035401D60C1F88060D1F884505D607E
:107D50004FF0FF33C1F88430027004B962B670BCD2
:107D6000704701230370F8E7F83C002000E100E0D1
:107D7000FC06FFBD094B9A687AB170B910B4EFF3F5
:107D8000108172B6064A1C6814605C685460986082
:107D900001B962B65DF8044B70477047F83C0020AB
:107DA00000E100E010B4034653E8000F0A4643E840
:107DB000002494F0000FF7D15DF8044B704700BF2A
:107DC00010B4034653E8002F02EB010043E800041F
:107DD00094F0000FF6D15DF8044B704710B40346E1
:107DE00053E8002FA2EB010043E8000494F0000FD9
:107DF000F6D15DF8044B704710B40346012253E8F6
:107E0000001F41EA020043E8000494F0000FF6D19D
:107E10005DF8044B704700BF10B40346002253E8DE
:107E2000000F00EA020143E8001494F0000FF6D1BD
:107E30005DF8044B704700BFB8B130B4D0E901120F
:107E4000521A0468D2B2531E2160DBB242B10168FB
:107E50000A685C1E551C0D601370E3B2FF2BF6D14F
:107E600003680020187130BC70470E20704700BFB7
:107E7000F0B583B0044600250DF107008DF80750DA
:107E8000FFF752FFD4E900311A688A4210D9511E17
:107E900019602168A3680F6812F8015C0A79A68A44
:107EA000E068DB1BDBB29A4206FB050538BF0B71AD
:107EB0009DF80700FFF75EFF284603B0F0BD00BF46
:107EC00030B5054683B000230DF107000C468DF850
:107ED0000730FFF729FF2A681368591C1160E96809
:107EE000AA8A641AB4FBF2F41C709DF80700FFF72D
:107EF00041FF03B030BD00BF826842B110B50446F7
:107F000043690168006998470023A36010BD70476A
:107F10000EB400B582B0039921B104AB01AA01935C
:107F200000F092F802B05DF804EB03B0704700BFB8
:107F30002DE9F84F1646B142DDE90AB288460546FA
:107F40001F467BD30B464FF00109B3FBF6F39E426D
:107F500009F10109F9D9B94538BFB94612F0010A4A
:107F600002D1BBF1000F47D1AA68012402E0013F12
:107F700006FB04F4012FFAD8B8FBF4F18E42F7D9CE
:107F8000304F07E0B442B4FBF6F315D3B8FBF3F17E
:107F9000AA681C46531CAB602B68785C9854D5E9E2
:107FA00001329A4204FB1188ECD32846FFF7A4FF64
:107FB000B4FBF6F3B442E9D2BAF1000F13D0BBF12F
:107FC000000F10D02024D9450BF1FF3B0BD2AB683A
:107FD0002A68591CA960D454D5E901329A4204D2C6
:107FE000BBF1000FEFD1BDE8F88F2846FFF784FF03
:107FF000BBF1000FE7D1F6E793071AD42024AA6853
:10800000D94502F10101B0D22B68A9609C54D5E991
:1080100001329A420BF1FF3B03D2BBF1000FEFD1CB
:10802000A3E72846FFF768FFAA68BBF1000FE7D176
:108030009BE7002F0CBF30242024E0E74FF001091C
:1080400089E700BF18080300002900F0AD812DE981
:10805000F04FDFF8A8940B7885B0064690460C46A2
:108060004FF0300A01E0237893B1013483B1252B1E
:1080700015D0B2683168501CB0608B54D6E901321B
:108080009A42F0D33046FFF737FF2378002BECD12C
:10809000337B002B40F09A8005B0BDE8F08F0027BD
:1080A000214614F8012B2D2A69D0302A6AD02B2AB8
:1080B0005ED02A2A69D0A2F13003092B4FF00005C7
:1080C0000BD805EB850502EB450511F8012FA2F150
:1080D0003003092BA5F13005F3D92E2A0C465FD0C9
:1080E000002301E014F8012F02F0FB016829F9D008
:1080F000252A00F05681583AD1B2202936D8202AB4
:1081000034D8DFE812F07700330033003300330057
:108110003300330033003300330033002100850087
:108120003300330033003300850033003300330065
:10813000330033003300CE00330033000B01330033
:108140006900330033007700D8F80020131DC8F809
:108150000030B36831681278581CB060CA54D6E950
:1081600001329A4202D33046FFF7C6FE01347AE765
:10817000214614F8012B2D2A47F0040795D147F02A
:1081800001078DE747F002078AE7D8F800301A1D8B
:10819000C8F800204A781D682E2A01F101049FD1F9
:1081A0006278A2F13003092B04F101044FF00003BF
:1081B0009AD803EB830302EB430314F8012FA2F1D7
:1081C00030010929A3F13003F3D98DE7304605B01A
:1081D000BDE8F04FFFF790BED8F80020111DC8F899
:1081E000001011683046CDE900570A22FFF7A0FEC3
:1081F000013438E7D8F80020111DC8F800101168C4
:108200003046CDE900571022FFF792FE01342AE7ED
:10821000D8F80020111DC8F80010D2F800B08BEA81
:10822000EB72A2EBEB72092A40F36381DFF8D0C254
:10823000012011466329ACFB02E200F101004FEA84
:10824000D202F6DC9842024638BF1A460292002D4E
:1082500040F0AB80B80700F111810025BBF1000FA1
:10826000C0F2FE807A070ED5B1684A1CB26032684F
:108270002B205054D6E90121914204D33046039378
:10828000FFF73AFE039B07F00302022A00F0098180
:10829000CDE9005759460A223046FFF749FE01341E
:1082A000E1E6D8F80020131DC8F80030B368316843
:1082B00017685A1CB26001F803A0D6E90123934263
:1082C00080F00E813268581C7821B060D154D6E914
:1082D0000123934280F0FF800F2F03D93A46120901
:1082E0000F2AFCD84FF0805506E00F2D4FEA1513EA
:1082F0007FF63CAF1D46B3683268B7FBF5F1581CFA
:10830000B06019F80100D054D6E901329A4205FB59
:108310001177EAD33046FFF7EFFDE6E7D8F80030F3
:108320001A1DC8F8002017F00107D3F800B05DD07F
:108330009BF80000002800F0DE80B3685F46CBF1B8
:108340000102591CB1603168C854D6E901138B424F
:1083500002EB070B1AD217F8010F0028F1D15D4587
:108360007FF604AF202702E05D453FF4FFAEB26820
:108370003368501CB0609F54D6E901329A4205F12F
:10838000FF35F1D33046FFF7B7FDEDE730460292F7
:10839000FFF7B2FD17F8010F0028E0D0B368029A8A
:1083A000CFE7B3683168D7E67047BBF1000F01DB58
:1083B0007A0700D5013DB80766D4F9073FF54EAFFF
:1083C000002D3FF44AAF20220299A942BFF446AFE4
:1083D000B168481CB06030684254D6E9010181425E
:1083E00005F1FF3554D2002DEED136E7BBF1000F79
:1083F00003D0584605F0F4FD0746BD4215D9A5B196
:10840000202102E0BD4210D07DB1B2683368501C1B
:10841000B0609954D6E90123934205F1FF35F1D3B9
:108420003046FFF769FD2021ECE79BF80020002A89
:108430003FF49CAEB3683168581CB060CA54D6E9AA
:108440000123934204D21BF8012F002AF3D18DE6B9
:108450003046FFF751FD1BF8012F002AEAD185E6CF
:10846000B1684A1CB26032682D205054D6E901210F
:108470009142CBF1000BFFF406AFFFE6002B36D0A4
:10848000F9073FF5EBAEE8E6002B3FF4E7AE94E7E3
:1084900030460393FFF730FD039B2022002D93D13C
:1084A000DBE6002B7FF4F4AEFDB1029AAA42BFF4E2
:1084B000EFAEB1683268481CB06002F801A0D6E99E
:1084C0000121914205F1FF35EED330460393FFF7CA
:1084D00013FD039BE8E73046FFF70EFDB368FBE6AC
:1084E0003046FFF709FDB368ECE60025D0E61D46EF
:1084F000B4E60120A6E6834631E700BF1808030072
:10850000CDCCCCCCFFF798BC2DE9F041858A033166
:10851000043D4E198046B6FBF5F6FFF7A9FCA0B363
:10852000F6B24FF48073013E0446C580C0F8008067
:1085300083802BD00346002508E06279AE4202F129
:10854000010262713860C0F800801FD040461F46AB
:10855000FFF78EFC013503460028EED16779791EBE
:1085600017D02246013399421268FBD1D2F800801D
:108570005FB12668002501E03446366821460135A2
:108580004046FFF79DFCAF42F6D800242046BDE8E8
:10859000F08120682146FFF793FCF6E704300121C3
:1085A000FFF70EBC2DE9F041012104460430FFF72E
:1085B00015FC10F0FF0301D0BDE8F0816779791E4A
:1085C00016D02246013399421268FBD1D2F80080BE
:1085D000002FF1D02668002501E034463668214698
:1085E00001354046FFF76CFCAF42F6D8BDE8F0819C
:1085F00020682146BDE8F041FFF762BC2DE9F84351
:10860000C78804339F42044615468846B3FBF7F2F9
:1086100007FB123002D8013A2468FCD13E1AAE4260
:1086200028BF2E469DB14FF000090430AD1B2044F9
:10863000324608EB090105F095FCAF42B1442468CD
:108640003E464FF0000028BF2E46002DEDD1BDE87C
:10865000F88300BF2DE9F843C78804339F4288465A
:108660001546B3FBF7F1044607FB113202D8013976
:108670002468FCD1BE1AAE4228BF2E469DB14FF0F1
:1086800000090432A118AD1B324608EB090005F0C1
:1086900069FCAF42B14424683E464FF0000228BF57
:1086A0002E46002DEDD1BDE8F88300BF41DF7047B5
:1086B000064A074B10B5002414701C60BFF35F8F8F
:1086C0000449054800F034F8204610BD3C34002031
:1086D00040340020340803003434002000B583B057
:1086E00000230DF107008DF80730FFF71DFBF1EEB9
:1086F000103A23F09F03E1EE103ABFF35F8F0B4B6C
:108700004022C3F884219DF80700FFF733FB05F0F2
:108710003DFA28B920BF40BF20BF03B05DF804FB7D
:10872000FFF7C4FF03B05DF804FB00BF00E100E009
:1087300001600B6843604A68934204BF00234360B2
:10874000704700BF436843B1026891680B444360BF
:108750005268934204BF002343607047114910B42C
:10876000A1F5947205E052F83330984238BF2146A3
:108770000CD28C1AE30F03EBE4035B10914202EB83
:10878000C304F0D808485DF8044B704702D904F1DF
:108790000802EEE76068044B5DF8044B002808BF50
:1087A00018467047680D03002C0C030030B4B84B1A
:1087B0001B78062B20D0B74B1B68062B00F081805E
:1087C000B54AD2F8883043F47003C2F88830BFF35A
:1087D0004F8FBFF36F8F4FF01023D3F80022002A82
:1087E000C0F28681D3F80432002BC0F28181AB4BFA
:1087F000AB4A1A6030BC7047AA4B1B681D07DAD120
:10880000A94B1B6803F0F002302A00F09B8003F0B4
:10881000E003402B00F09680A34B1B6803F0F003AD
:10882000302B00F0A080A04B1B6803F0F002302A30
:1088300077D003F0E003402B73D09B4B1B6803F011
:10884000F003302B00F01481974B1B6803F0F0020B
:10885000302A52D003F0E003402B4ED0924B1B68DD
:1088600003F0F003302B00F0F5808F4B1B6803F012
:10887000F003302B00F0D7808B4B1B6803F0F00324
:10888000502B7ED0884B1B6803F0F002302A23D097
:1088900003F0E003402B1FD0834B1B6803F0F00272
:1088A000302A03D003F0E003402B84D14FF0804303
:1088B000D3F80024D20744BF6FF00102C3F80024AC
:1088C00079E77A4B1B68062B7FF47AAF784A1368F6
:1088D00043F48063136073E7764B6D4A1B6812782C
:1088E000754903F04F03062A0B607FF464AF6D4BAC
:1088F0001B6819077FF45FAFCEE7654A11784FF028
:10890000804300220629C3F80C21C3F81021C3F8C4
:1089100038257FF450AF634B1B681B077FF44BAFC8
:108920009CE7664B5A4A1B6812786549C3F3423389
:10893000062A0B607FF43FAF5A4B1B6819077FF480
:108940003AAF7AE75F4B524A1B6812785E49C3F32D
:108950000423062A0B607FF42EAF524B1B681C07C2
:108960007FF429AF58E74A4B584A1B7858491160A1
:10897000062B7FF420AF4B4B1B6818077FF41BAF0F
:1089800051E74FF08052534BD2F80414C3F820152E
:10899000D2F80814C3F82415D2F80C14C3F828151B
:1089A000D2F81014C3F82C15D2F81414C3F83015EB
:1089B000D2F81814C3F83415D2F81C14C3F84015B3
:1089C000D2F82014C3F84415D2F82414C3F848157B
:1089D000D2F82814C3F84C15D2F82C14C3F850154B
:1089E000D2F83014C3F85415D2F83414C3F8601513
:1089F000D2F83814C3F86415D2F83C14C3F86815DB
:108A0000D2F840142248C3F86C15D2F84414027806
:108A1000C3F87015062A7FF4CEAE224B1B681807E8
:108A20007FF4C9AE2EE71A4B2B4C1B782B492C48F0
:108A30002C4A0525256001250D6000243F21062BC9
:108A4000046011607FF4B7AE164B1B681C077FF4FF
:108A5000B2AE11E70E4B244A1B780321062B11609E
:108A60007FF4A9AE0F4B1B681D077FF4A4AEFCE694
:108A70001E4A0749D368097823F080730629D3601A
:108A80007FF499AE074B1B681A077FF494AEDBE6C0
:108A9000E00F00F03001001000ED00E0EC290020B4
:108AA0000090D003E40F00F0E80F00F03401001054
:108AB0003C17004058020010E40E00404402001031
:108AC0003C050040240300104035014074C00740BD
:108AD0000DF0ADBA00C0004010560040885600406E
:108AE0001856004014560040A0050040F0ED00E08C
:108AF000184A0123C2F80435D2F80034002BFBD009
:108B00004FF010231521134AC3F80012D2F8003495
:108B1000002BFBD04FF0102315210E4AC3F804128E
:108B2000D2F80034002BFBD000230A49C2F80435E8
:108B3000D1F80034002BFBD0BFF34F8F0649074B11
:108B4000CA6802F4E0621343CB60BFF34F8F00BFEB
:108B5000FDE700BF00E0014000ED00E00400FA0581
:108B600010B568B90E4CA368012262703BB1D3E91D
:108B700000230020A2609847A368002BF7D110BD06
:108B80000128FCD1064C2369A070002BF7D0D3E953
:108B900000230120226198472369002BF7D110BDE3
:108BA0004434002070B910B5074CA36801226270EC
:108BB0003BB1D3E900230020A2609847A368002BB3
:108BC000F7D110BD704700BF4434002030B50128F4
:108BD00083B004D003281DD0B0B103B030BD224C07
:108BE00000230DF107008DF80730FFF79DF823787B
:108BF0004BB3E3689DF8070001330122E360A270E4
:108C0000FFF7B8F803B030BD184B0122C3F880203D
:108C100003B030BD144C00F039F800230DF107000B
:108C20008DF80730FFF780F8E368013BE360E56803
:108C30002DB19DF80700FFF79DF803B030BD00F09F
:108C400039F8A570F5E70A486360A3602361E36023
:108C500000F010F804F09AFF10B101232370C8E768
:108C600000F014F8F9E700BF4434002000E100E010
:108C7000618B0200044A137923B9012110609180AD
:108C8000184670478520704758340020084B1A68F2
:108C9000D20706D40122E02183F80013C3F8802113
:108CA0001A604FF080430122C3F81825704700BFB7
:108CB00000E100E0044B01221A604FF08042D2F83C
:108CC0001834DB03FBD470470C00004010B5174B81
:108CD0001A6882B062B10021154A19601B68507988
:108CE00000934FF080410123009CC1F8083398B1F4
:108CF000104B1A68BAB100221A601B6801934FF03A
:108D0000804202210A4B0198C2F808131B68012017
:108D100002B0BDE810401847116853718847054BF1
:108D20001A68002AE7D102B010BD00BF0001004060
:108D300058340020040100402DE9F04186B0C04ABB
:108D4000002301931168012900F0C8811E46BD4B24
:108D50001A68012A00F0B481BB4B1A68012A00F09E
:108D6000A181BA4B1A68012A00F08E81B84B1A68AB
:108D7000012A00F07B81B74B1A68012A00F052816A
:108D8000B54B1A68012A00F03F81B44B1A68012ADA
:108D900008D0B34B1A68012A00F0AC81F6B906B0CE
:108DA000BDE8F081AF4AD2F804231206F1D50022C3
:108DB0001A6019680491196E0498012903F160037F
:108DC00046F080060AD11A601B6805934FF0A04355
:108DD000059AD3F81035019346F00046A24F0024BF
:108DE0000125A30003F180432E4203F5C0434FEA5F
:108DF00045050BD0D3F8100557F82420D3F81015EB
:108E0000C0F30420C1F3014102B190470134082CA2
:108E1000E7D1002EC3DA00224FF0FF33CDE9022361
:108E2000914C012502AE94F95000471C37D0C0F395
:108E3000C20C06AB03EB0C0700F0070317F80C2C71
:108E400005FA03F31A42C1B200F03F0027D02218FE
:108E5000890992F9302054F82280B8F1000F00F00F
:108E60009D81032900F09D81820002F1A04217F844
:108E7000147CD2F800C71F40CCF3014C0BD0BCF1DE
:108E8000020F0CD1032900F0BF810027B8F1000FB9
:108E900006D0C04704E0BCF1030F00F0A381002717
:108EA00094F95100411C32D0C0F3C20E06AB03EB63
:108EB0000E0C00F007031CF80C2C05FA03F31A4201
:108EC000C1B200F03F0022D02218890992F9302067
:108ED00054F82280B8F1000F00F07B81032900F0E4
:108EE0007B81820002F1A04E1CF814CCDEF8002732
:108EF0001CEA030FC2F3014200F03A81022A06D1B4
:108F0000032900F08481B8F1000F00D0C04794F924
:108F10005200421C32D0C0F3C20E06AB03EB0E0C63
:108F200000F007031CF80C2C05FA03F31A42C1B237
:108F300000F03F0022D02218890992F9302054F81D
:108F40002280B8F1000F00F03B81032900F03B8143
:108F5000820002F1A04E1CF814CCDEF800271CEAB7
:108F6000030FC2F3014200F0ED80022A06D103296B
:108F700000F05081B8F1000F00D0C04794F95300C1
:108F8000431C32D0C0F3C20E06AB03EB0E0C00F054
:108F900007021CF80C3C05FA02F21342C1B200F0C1
:108FA0003F0022D02318890993F9303054F82380E8
:108FB000B8F1000F00F0FB80032900F0FB80830074
:108FC00003F1A04E1CF814CCDEF800371CEA020FA7
:108FD000C3F3014300F09C80022B06D1032900F06B
:108FE0001C81B8F1000F00D0C047002F3FF4D7AE6E
:108FF0004FF0A043019AD3F810359A423FF4CFAE18
:10900000029A019303920EE7164AD2F804235106FE
:109010007FF5BBAE00221A601B680493049B46F0E8
:109020004006B2E60F4AD2F8042390067FF5A8AEB8
:1090300000221A601B680493049B46F020069FE6FA
:109040000061004004610040086100400C61004084
:109050001061004014610040186100401C61004034
:109060007C61004000600040603400206C4AD2F80F
:109070000423D4067FF57FAE00221A601B68049398
:10908000049B46F0100676E6654AD2F804231507DD
:109090007FF56CAE00221A601B680493049B46F0B7
:1090A000080663E65E4AD2F8042357077FF559AEF7
:1090B00000221A601B680493049B46F0040650E6E5
:1090C000574AD2F8042392077FF546AE00221A6071
:1090D0001B680493049B46F002063DE65049D1F814
:1090E000046316F001063FF432AE13601368049374
:1090F000049B2CE600221A601B6805934FF0A043E6
:10910000059AD3F810350193002E3FF484AE63E640
:10911000032B7FF46AAF03297FF463AF4FF400326F
:10912000DEF8003723F44033CEF80037DEF800379E
:109130001343CEF80037B8F1000F3FF459AF0137B1
:10914000FFB251E7032A7FF419AF03297FF412AF6E
:109150004FF40032DEF8003723F44033CEF8003706
:10916000DEF8003701371343FFB2CEF8003701E7CE
:10917000032A7FF4CCAE03297FF4C5AE4FF400324E
:10918000DEF8003723F44033CEF80037DEF800373E
:1091900001371343FFB2CEF80037B4E603297FF45A
:1091A0007EAE16F80C201A4306F80C205CE6032964
:1091B0007FF41BAF16F80E30134306F80E30FEE6B0
:1091C00003297FF4DBAE16F80E201A4306F80E20B2
:1091D000BEE603297FF49BAE16F80E201A4306F86C
:1091E0000E207EE603297FF451AE4FF40037D2F80B
:1091F000003723F44033C2F80037D2F800373B433E
:10920000C2F80037012741E64FF44037EFE74FF44B
:109210004032B5E74FF440329CE74FF440327FE7ED
:1092200000600040014B1B68184700BFBC340020A1
:1092300030B5002083B002F09BF902F0A1FD0328B5
:1092400033D002F087FD02F087FD234D234C002030
:1092500002F08EF902F094FD032807D8DFE800F051
:109260001B2016022946204604F092FE0123CDE978
:1092700000331A461946204600F0C8FF002003F0CC
:1092800087F8402825D002F021FEE0E71449204667
:1092900004F07EFEEAE71349204604F079FEE5E794
:1092A0001149204604F074FEE0E710490B4804F031
:1092B0006FFE0123CDE9003308481A46194600F035
:1092C000A5FF01E01028BCD0002003F061F8402881
:1092D000F8D103B030BD00BFC40D0300C43400207A
:1092E000BC0D0300A00D0300B00D0300940D03009E
:1092F00000B5002083B002F03BF905E003F048F828
:1093000040281FD002F0E2FD02F03AFD0346032B95
:109310004FF00000F2D00D490D4804F039FE002056
:1093200002F026F90123CDE9003309481A4619460F
:1093300000F06CFF01E0102804D0002003F028F8B2
:109340004028F8D103B05DF804FB00BFD00D030046
:10935000C43400202DE9F043002089B002F008F960
:1093600003F052F800F2DC5603F04EF8BC4FDFF881
:10937000F89200F1C8054FF0010805E003F044F849
:10938000B0423FD802F0A2FD02F0FAFC03280446E6
:1093900069D103F039F8A84217D903F035F805462A
:1093A000012002F0F5FF402805F59675034671D0BF
:1093B000A921002202A88DF809308DF81E408DF8F1
:1093C00008108DF80A2002F0F7FC02F0DFFC0028FC
:1093D000D4D0002302A88DF80A3002F0DDFC03F09F
:1093E00013F89DF80830AC2B00F2DC56C6D19DF87E
:1093F0000930013B072B1DD8DFE803F05C145F6DDB
:109400008090EE4F002002F0B3F84946384604F051
:10941000BFFD0A230122CDE900381146384600F08D
:10942000F5FEAFE79DF80B00002800F0FC8001205E
:1094300002F09EF89DF80A30DA0703D501F024FB0C
:109440009DF80A3003F002021AB102F083FC9DF885
:109450000A305B0729D502F0D7FF00F1640500232D
:109460008DF80A308AE77F497D4804F091FD00209D
:1094700002F07EF80123CDE9003379481A461946F7
:1094800000F0C4FE01E0102804D0002002F080FFAC
:109490004028F8D109B0BDE8F0839DF80E200023E4
:1094A0008DF80A30002A40F0CF8002F0ADFF00F1C5
:1094B000C805D4E700F0D4FEBCE79DF80F30009358
:1094C0009DF80D209DF80E309DF80C109DF80B00B6
:1094D00001F0D4FDAEE79DF81030002B00F0A6801F
:1094E0009DF80F3000939DF80D209DF80E309DF8EB
:1094F0000C109DF80B0001F0E3FF9BE79DF80F3087
:10950000002B00F085809DF80E309DF80D209DF811
:109510000C109DF80B0001F031FD8BE79DF80F302A
:1095200000223A70002B48D09DF810203A70012B91
:109530003ED99DF811207A70022B39D09DF8122067
:10954000BA70032B34D09DF81320FA70042B2FD05F
:109550009DF814203A71052B2AD09DF815207A71B8
:10956000062B25D09DF81620BA71072B20D09DF828
:109570001720FA71082B1BD09DF818203A72092B7E
:1095800016D09DF819207A720A2B11D09DF81A2056
:10959000BA720B2B0CD09DF81B20FA720C2B07D043
:1095A0009DF81C203A730D2B1CBF9DF81D207A736B
:1095B000013B57FA83F300225A709DF80C309DF856
:1095C0000E100022CDE9003238469DF80B309DF890
:1095D0000D2000F01BFE2DE79DF80D009DF80E30CC
:1095E0009DF80F109DF8102043EA00231BB200EEF7
:1095F000103A42EA012300EE903AB8EEC00AF8EEC3
:10960000600A9DF80C109DF80B0000F079FD11E741
:109610009DF80E309DF80D209DF80C109DF80B0064
:1096200001F008FB06E701F0A3FF03E79DF80F3008
:1096300000939DF80D209DF80E309DF80C109DF8BC
:109640000B0001F0B9FDF5E69DF80C109DF80D300A
:109650009DF80B0043EA012102F0C6FDEAE600BFD7
:10966000C4340020D00D0300E00D03002DE9F041CB
:10967000DFF89080214D224F82B04FF4FA7405E05C
:1096800002F086FE402835D002F020FC02F0BCFE3D
:1096900003469C424FF00000F2D202F0B5FE0446B1
:1096A000002001F065FF02F017FF41460246284600
:1096B00004F06EFC002601231A4619462846CDE91F
:1096C000006600F0A3FD01231A463946284604F03F
:1096D0005FFC0123082001931A4619460090284692
:1096E00000F094FD304602F053FE402802D004F50D
:1096F000FA74C9E702B0BDE8F08100BFC4340020AD
:10970000000E0300EC0D03002DE9F04342484349ED
:10971000DFF82891DFF8288183B0044604F038FC94
:10972000002002F035FE012610283746354638D88D
:10973000002856D001380F2853D8DFE800F0554BE9
:10974000523E525252375252525252525208002EE8
:109750005CD13349204604F01BFC0125002001F0B8
:1097600007FF2B462A4602212046CDE9005500F08E
:109770004DFD98F800204946204604F009FC1021D0
:10978000009101952B462A460221204600F03EFD1D
:1097900002F09CFB002002F0FBFD10284FF00005BA
:1097A000C6D940281DD103B0BDE8F0831D4920462D
:1097B00004F0EEFB01260027CFE717B31A49204635
:1097C00004F0E6FB98F80030002BC6D0013B88F887
:1097D0000030C2E715492046002604F0D9FB374681
:1097E000BBE7002DD4D0B8E75FB11149204604F0A3
:1097F000CFFB98F800301F2BAFD8013388F800302A
:10980000ABE70C49204604F0C3FBA6E70A49204613
:1098100004F0BEFB3746A0E7C4340020140E03005A
:10982000580E0300440E03003C0E0300300E0300EC
:10983000280E03001C0E0300500E0300640E0300EC
:10984000F02900202DE9F04F002087B001F090FEB4
:1098500000260A230020CDE90363059302F098FD5A
:109860001028824DDFF81CA24FF0010400F2828024
:10987000002800F0B480431E0F2B00F2B080DFE818
:1098800003F09E95AE85AEAEAE7EAEAEAEAEAEAEE3
:10989000AE08DDF80C904FF0010B002001240027EA
:1098A00001F066FE7249284604F072FB142322463A
:1098B00021462846CDE9004700F0A8FC4FF00908F2
:1098C000059A5146284604F063FB224614230221E0
:1098D00028460197CDF8008000F098FC654928469D
:1098E00004F056FB3223224621462846CDE90047A4
:1098F00000F08CFC049A5146284604F049FB2246AD
:10990000322302212846CDE9008700F07FFC5A4926
:10991000284604F03DFB5023224621462846CDE947
:10992000004700F073FC4A465146284604F030FBDD
:10993000CDE90087224650230221284600F066FC2C
:10994000BBF1000F4ED04D49284604F021FB1823EF
:10995000CDE90034224620232146284600F056FC5B
:1099600002F0B4FA002002F013FD10284FF00004BA
:109970007FF67EAF402832D107B0BDE8F08F012ED0
:1099800045D9DDF80C904FF0000B86E7012E4BD047
:10999000022E43D0002EF4D1059B002B60D0013B5A
:1099A000DBB2DDF80C900593B34676E7002EE8D0E5
:1099B000013EDDF80C90F6B24FF0000B6DE7012E82
:1099C00043D0022E3BD0002EDBD1059B1F2BD8D8D5
:1099D0000133DBB2DDF80C900593B3465DE7002C54
:1099E000BED0CEE72649284604F0D2FA731C03EB1A
:1099F000430203EB82035B0018220092019403F000
:109A0000FE0322462146284600F000FCA8E7013666
:109A1000DDF80C90F6B24FF0000B3EE74FF0000976
:109A2000CB46CDF80C9038E7049B002BA9D0013B26
:109A3000DBB2DDF80C9004934FF0000B2DE70390A0
:109A40004FF001094FF0000B27E7049B1F2B98D81C
:109A50000133DBB2DDF80C9004934FF0000B1CE7F0
:109A6000DDF80C909B461E4617E700BFC43400206B
:109A7000700E0300740E03007C0E0300840E0300BE
:109A80008C0E0300100E03002DE9F04F83B002F09E
:109A90002FFC02F0B9FB092002F0E0FC012002F0EB
:109AA0001FFA02F0B3F9042000F05AF9032000F085
:109AB00077F9FF2103209C4EDFF898A2DFF89892F7
:109AC00000F0F2FA374600254FF00108012002F0BD
:109AD0005FFC402802D0002002F002FA0135EDB20E
:109AE000092D2CD04946384604F052FAFC23012DAA
:109AF000337012D0022D73700FD0032DB3700CD0C1
:109B0000042DF37009D0052D337106D0062D737125
:109B100003D0082DB37108BFF3711423CDE90038C9
:109B2000012208230221384600F070FB4AF0010BA5
:109B300032244FF47A40D847013CFAD1C6E700F00E
:109B40008FFB0026DFF81492774C35460127002062
:109B500002F01EFC01380F2809D8DFE800F0CFC959
:109B600008C3080808BD0808080808080886002F68
:109B700077D0002001F0FCFC4946204604F008FAAA
:109B800001231A4619462046CDE9005500F03EFB58
:109B90006649204604F0FCF94FF0080A01231A46F2
:109BA00019462046CDE900A500F030FB604920466B
:109BB00004F0EEF94FF0100801231A46194620462A
:109BC000CDE9008500F022FB5A49204604F0E0F977
:109BD000182701231A4619462046CDE9007500F0E2
:109BE00015FB5549204604F0D3F9012211465023B4
:109BF0002046CDE9005500F009FB5049204604F00D
:109C0000C7F90122114650232046CDE900A500F0F6
:109C1000FDFA4B49204604F0BBF9012211465023BE
:109C20002046CDE9008500F0F1FA4649204604F0CF
:109C3000AFF90122CDE9007511465023204600F00E
:109C4000E5FA032E60D84049204604F0A1F9F3005C
:109C5000DBB20122CDE9003211463123204600F06B
:109C6000D5FA02F033F9002771E7072E81D8DFE833
:109C700006F0302D2A27240B0804002002F030F9CA
:109C800077E7FFF7DFFD74E7002001F071FC2F4953
:109C9000204604F07DF908230122CDE9003202219B
:109CA0000A23204600F0B2FA01E002F00FF900208A
:109CB00002F06EFB4028F8D15BE7FFF725FD58E77F
:109CC000FFF7D4FC55E7FFF745FB52E7FFF710FB22
:109CD0004FE7FFF7ADFA4CE7032E3FF64AAF0436E5
:109CE000F6B246E7062E3FF644AF0136F6B240E73D
:109CF000032E7FF63EAF043EF6B23AE7002E3FF465
:109D000038AF013EF6B234E71149204604F040F97D
:109D1000331FDB000122DBB2CDE9003211464123C3
:109D2000204600F073FA9CE7C4340020B00E030014
:109D3000BC0E0300C80E0300D40E0300DC0E0300AB
:109D4000E40E0300EC0E0300F40E0300900E03007B
:109D5000F80E0300000F03009C0E0300A80E030082
:109D600030B44FF0A0420D4D00F5E0710123834067
:109D700003242870C2F80C3542F82140C2F8083597
:109D800000BF00BF00BF00BF00BF00BF00BF00BFDB
:109D900000BF00BF00BF30BC704700BFE4340020EC
:109DA0004FF0A04200F5E071012303FA00F040F209
:109DB0000163C2F80C0542F82130C2F8080500BF63
:109DC00000BF00BF00BF00BF00BF00BF00BF00BF9B
:109DD00000BF00BF704700BF30B4334C3349257813
:109DE000087001234FF0A04203FA05F5C2F80855A8
:109DF00000BF00BF00BF00BF00BF00BF00BF00BF6B
:109E000000BF00BF00BF087803FA00F0C2F80805E1
:109E100000BF00BF00BF00BF00BF00BF00BF00BF4A
:109E200000BF00BF00BF207803FA00F0C2F80805A9
:109E300000BF00BF00BF00BF00BF00BF00BF00BF2A
:109E400000BF00BF00BF087803FA00F0C2F80C059D
:109E500000BF00BF00BF00BF00BF00BF00BF00BF0A
:109E600000BF00BF00BF207803FA00F0C2F80C0565
:109E700000BF00BF00BF00BF00BF00BF00BF00BFEA
:109E800000BF00BF00BF09788B40C2F8083500BF93
:109E900000BF00BF00BF00BF00BF00BF00BF00BFCA
:109EA00000BF00BF30BC7047E4340020E534002020
:109EB00010B43348017801234FF0A04203FA01F1B6
:109EC000C2F80C1500BF00BF00BF00BF00BF00BF3D
:109ED00000BF00BF00BF00BF00BF2A490C7803FAD3
:109EE00004F4C2F80C4500BF00BF00BF00BF00BFB4
:109EF00000BF00BF00BF00BF00BF00BF047803FA6F
:109F000004F4C2F8084500BF00BF00BF00BF00BF97
:109F100000BF00BF00BF00BF00BF00BF0C7803FA46
:109F200004F4C2F80C4500BF00BF00BF00BF00BF73
:109F300000BF00BF00BF00BF00BF00BF007803FA32
:109F400000F0C2F8080500BF00BF00BF00BF00BF9F
:109F500000BF00BF00BF00BF00BF00BF09788B403B
:109F6000C2F8083500BF00BF00BF00BF00BF00BF80
:109F700000BF00BF00BF00BF00BF5DF8044B7047CB
:109F8000E4340020E534002070B4454D454E0823EC
:109F900001214FF0A0442A7801FA02F2C4F80C25FE
:109FA00000BF00BF00BF00BF00BF00BF00BF00BFB9
:109FB00000BF00BF00BF327810F0800F01FA02F23C
:109FC00014BFC4F80825C4F80C2500BF00BF00BFAB
:109FD00000BF00BF00BF00BF00BF00BF00BF00BF89
:109FE0002A7801FA02F2C4F8082500BF00BF00BFBA
:109FF00000BF00BF00BF00BF00BF00BF00BF00BF69
:10A00000013B40009BB2C0B2002BC4D12B7801FAB7
:10A0100003F3C4F80C3500BF00BF00BF00BF00BF92
:10A0200000BF00BF00BF00BF00BF00BF337801FA10
:10A0300003F3C4F8083500BF00BF00BF00BF00BF76
:10A0400000BF00BF00BF00BF00BF00BF2B7801FAF8
:10A0500003F3C4F8083500BF00BF00BF00BF00BF56
:10A0600000BF00BF00BF00BF00BF00BF3278D4F800
:10A0700010052B78D04001FA03F300F0010080F0C6
:10A080000100C4F80C3500BF00BF00BF00BF00BF17
:10A0900000BF00BF00BF00BF00BF00BF70BC704763
:10A0A000E4340020E5340020F8B54FF0A04201F57B
:10A0B000E0740123114E032703FA01F542F82470DE
:10A0C0001E430746C2F80C550A244FF47A40B047A5
:10A0D000013CFAD14FF0A0430A24C3F808554FF4CD
:10A0E0007A40B047013CFAD1384600F09BFA22464C
:10A0F0003C21BDE8F840022000F09EBA100F03009A
:10A100002DE9F04FDFED407A2DED028B70EE677A8E
:10A1100085B0034617EE900AB0EE608ACDE90231B1
:10A1200005F054FF36A3D3E9002306F0D1F8F2EE90
:10A13000087AC8EE277A06460F4617EE900A05F011
:10A1400045FF04460D463046394606F059FA05F0FB
:10A150003DFF41EC100B41EC180B04F0A9FBB0EEF5
:10A16000407AF0EE607AB0EE480AF0EE680A57ECFA
:10A17000176B04F0F1FBBDF908A0BDF90CB059EC68
:10A18000108B504659460123152200F053FD4246DC
:10A190004B462046294605F071FF06F031FADDED09
:10A1A000037A07EE100AF8EEE77A324677EE877AFE
:10A1B0009DED027AFDEEE77A3B4620462946B8EE51
:10A1C000C78A17EE904A05F059FF06F019FA07EE14
:10A1D000900A38EE278A24B2BDEEC88A012518EE0F
:10A1E000102A23465946504612B2009500F046FF09
:10A1F00005B0BDEC028BBDE8F08F00BFAFF300806F
:10A2000072235D1ADCA54C400000B442F0B583B067
:10A210001646054608469DF8201001911C469DF8FB
:10A22000247001F0B5FB304601F0BAFB20460199DD
:10A2300001F0A4FB002402E0E85C01F049FB2846A1
:10A2400003F0CEFEA3B2984204F10104F4D8012F2A
:10A2500001D003B0F0BD03B0BDE8F04000F014BC85
:10A2600000F0A0BC10B4324B1B78022B0BD0032B98
:10A2700057D0012B4ED0012A11D0022A36D00AB372
:10A280005DF8044B70472B4C2B4B24881B88013CFA
:10A29000013B201A591A012A00B209B2EDD1002956
:10A2A0000B46B8BFCB1DDB10802213FB0200234BF3
:10A2B00001F007041A5C0121A140114319545DF813
:10A2C000044B704700290B46B8BFCB1DDB10802222
:10A2D00013FB0200194A01F00704135C0121A1409D
:10A2E00023EA010111545DF8044B704700290B4625
:10A2F000B8BFCB1DDB10802213FB02000F4A01F018
:10A300000701145C012303FA01F1614011545DF867
:10A31000044B7047074B1B88013B5B1A014618B280
:10A32000A9E7054B1B88013B1B1A084619B2A2E797
:10A33000F5360020E8340020E6340020F034002018
:10A34000F0B40028614DBEBF1218002012B2B5F95A
:10A35000005004461444AC42C4BF2A1A12B2002A68
:10A360000FDDCC1000EBC410594D012401F00701A2
:10A3700004FA01F1A3422844C9B26FD0022B38D0AD
:10A380000BB1F0BC70471FFA82FC0CF1FF3294B2A3
:10A39000C943022CC9B212B21BD961F3070361F39E
:10A3A0000F2361F317434FEA9C0761F31F6300EB30
:10A3B00087070546064655F8044B1C40BD4246F843
:10A3C000044BF8D12CF00303D21A634512B218449F
:10A3D000D7D003780B400370002AD2D04378012AEB
:10A3E00003EA01034370CCD0837819408170F0BC3C
:10A3F00070471FFA82FC0CF1FF3293B2022B12B2AB
:10A400001CD9002761F3070761F30F2761F3174792
:10A410004FEA9C0661F31F6700EB8606044605467B
:10A4200054F8043B7B40B44245F8043BF8D12CF08F
:10A430000303D21A9C4512B21844A2D003784B40B1
:10A440000370002A9DD04378012A83EA01034370F8
:10A4500097D0837859408170F0BC70471FFA82FC16
:10A460000CF1FF3293B2022B12B21DD9002761F317
:10A47000070761F30F2761F317474FEA9C0661F363
:10A480001F6700EB86060446054654F8043B3B4331
:10A49000B44245F8043BF8D12CF00303D21A9C4592
:10A4A00012B218443FF46DAF03780B430370002AD7
:10A4B0003FF467AF4378012A43EA010343703FF456
:10A4C00060AF837819438170F0BC7047E834002096
:10A4D000F0340020F0B500294E4DBEBF52180021C7
:10A4E00012B2B5F900500C461444AC42C4BF6A1A0B
:10A4F00012B2002A26DDC1F3C404474E00EBC4109B
:10A5000011F00701D2B206EB000426D0C1F1080514
:10A51000EDB2424FAA427F5D15D2A5EB020E4FF07D
:10A52000FF0C4CFA0EFC0CEA0707012B4FFA87FCD4
:10A5300066D0022B5ED02BB9375C27EA0C07375464
:10A54000AA4206D2F0BD012B5AD0022B52D0002BCA
:10A550005CD008390A44D2B28034072A19D9022BB8
:10A560002AD0A2F10806C6F3C40604F5807000EBF9
:10A57000C610012B0CBFFF25002504F1800101F856
:10A58000805C80318842FAD1013604EBC61402F0B7
:10A590000702002AD6D02249012B8A5C08D0022B60
:10A5A00024D0002BCED1237823EA02022270F0BD02
:10A5B00023781A432270F0BDA2F10805C5F3C40543
:10A5C00004F5807000EBC51004F1800313F8801CC3
:10A5D000C94303F8801C80339842F7D1013512F04B
:10A5E000070204EBC514ADD00D4B9A5C23785A409A
:10A5F0002270F0BD16F800C087EA0C0737549FE7B9
:10A6000016F800C047EA0C07375499E74FFA87FC61
:10A6100092E700BFE6340020F03400201C14030051
:10A62000141403000249034B08703C221A7070474F
:10A63000F4360020EC3400202DE9F041C64EC74A24
:10A640003070DFF83883C64BDFF834C3DFF834E30B
:10A65000C44CC54D217000261680C44AA8F800607D
:10A660001E70DFF824838EF80060012313708CF8CD
:10A670000030BF4ADFF814E3DFF814C3BD494FF6DA
:10A68000FF73A8F800304FF08008A2F80080BA4AA3
:10A69000AEF80030074620232878ACF800800B8005
:10A6A0001380FFF799FB2078400000F0FE00FFF7D1
:10A6B0006BFC3046FFF768FCAE20FFF765FCFFF748
:10A6C000F7FB2878FFF788FB2078400000F0FE00B9
:10A6D000FFF75AFC3046FFF757FCD520FFF754FC34
:10A6E000FFF7E6FB2878FFF777FB2078400000F0C3
:10A6F000FE00FFF749FC3046FFF746FC4046FFF7F7
:10A7000043FCFFF7D5FB2878FFF766FB2078400075
:10A7100000F0FE00FFF738FC3046FFF735FCA820BC
:10A72000FFF732FCFFF7C4FB2878FFF755FB2078D2
:10A73000400000F0FE00FFF727FC3046FFF724FC46
:10A740001F20FFF721FCFFF7B3FB2878FFF744FB3E
:10A750002078400000F0FE00FFF716FC3046FFF7BF
:10A7600013FCD320FFF710FCFFF7A2FB2878FFF7BC
:10A7700033FB2078400000F0FE00FFF705FC304678
:10A78000FFF702FC3046FFF7FFFBFFF791FB28784D
:10A79000FFF722FB2078400000F0FE00FFF7F4FBFB
:10A7A0003046FFF7F1FB4020FFF7EEFBFFF780FBA1
:10A7B0002878FFF711FB2078400000F0FE00FFF73B
:10A7C000E3FB3046FFF7E0FB8D20FFF7DDFBFFF7F3
:10A7D0006FFB012F287800F03481FFF7FDFA207815
:10A7E000400000F0FE00FFF7CFFB3046FFF7CCFB48
:10A7F0001420FFF7C9FBFFF75BFB2878FFF7ECFAA3
:10A800002078400000F0FE00FFF7BEFB0020FFF7BD
:10A81000BBFB2020FFF7B8FBFFF74AFB2878FFF7C8
:10A82000DBFA2078400000F0FE00FFF7ADFB0020CF
:10A83000FFF7AAFB0020FFF7A7FBFFF739FB2878FB
:10A84000FFF7CAFA2078400000F0FE00FFF79CFBFB
:10A850000020FFF799FBA120FFF796FBFFF728FBED
:10A860002878FFF7B9FA2078400000F0FE00FFF7E3
:10A870008BFB0020FFF788FBC820FFF785FBFFF765
:10A8800017FB2878FFF7A8FA2078400000F0FE00B8
:10A89000FFF77AFB0020FFF777FBDA20FFF774FB66
:10A8A000FFF706FB2878FFF797FA2078400000F0C2
:10A8B000FE00FFF769FB0020FFF766FB0220FFF7B1
:10A8C00063FBFFF7F5FA2878FFF786FA2078400057
:10A8D00000F0FE00FFF758FB0020FFF755FB81203A
:10A8E000FFF752FBFFF7E4FA2878FFF775FA2078B4
:10A8F000400000F0FE00FFF747FB0020FFF744FB9D
:10A900008F20FFF741FBFFF7D3FA2878FFF764FAAF
:10A910002078400000F0FE00FFF736FB0020FFF734
:10A9200033FBD920FFF730FBFFF7C2FA012F28785D
:10A9300000F09880FFF750FA2078400000F0FE0009
:10A94000FFF722FB0020FFF71FFBF120FFF71CFBA6
:10A95000FFF7AEFA1EE000BFED340020F236002013
:10A96000F5360020EC340020F4360020053D0020B0
:10A97000E8340020E6340020EA340020F0360020DD
:10A98000FA360020043D0020F6360020F83600207C
:10A99000EE3400202878FFF71FFA2078400000F0FE
:10A9A000FE00FFF7F1FA0020FFF7EEFADB20FFF7D9
:10A9B000EBFAFFF77DFA2878FFF70EFA20784000CF
:10A9C00000F0FE00FFF7E0FA0020FFF7DDFA40207C
:10A9D000FFF7DAFAFFF76CFA2878FFF7FDF920782D
:10A9E000400000F0FE00FFF7CFFA0020FFF7CCFA9E
:10A9F000A420FFF7C9FAFFF75BFA2878FFF7ECF914
:10AA00002078400000F0FE00FFF7BEFA0020FFF7BC
:10AA1000BBFAA620FFF7B8FAFFF74AFA2878FFF743
:10AA2000DBF92078400000F0FE00FFF7ADFA0020CF
:10AA3000FFF7AAFAAF20FFF7A7FABDE8F041FFF74A
:10AA400037BAFFF7C9F92078400000F0FE00FFF7A1
:10AA50009BFA3046FFF798FA1020FFF795FAFFF7B8
:10AA600027FACAE6FFF7B8F92078400000F0FE00A8
:10AA7000FFF78AFA0020FFF787FA2220FFF784FA0F
:10AA8000FFF716FA86E700BF70B5434E434D3078A6
:10AA9000434CFFF7A1F92878400000F0FE00FFF7D3
:10AAA00073FA0020FFF770FA2120FFF76DFAFFF725
:10AAB000FFF93078FFF790F92878400000F0FE00A9
:10AAC000FFF762FA0020FFF75FFA0020FFF75CFA59
:10AAD000FFF7EEF93078FFF77FF92878400000F0B3
:10AAE000FE00FFF751FA0020FFF74EFA7F20FFF734
:10AAF0004BFAFFF7DDF93078FFF76EF92878400060
:10AB000000F0FE00FFF740FA0020FFF73DFA222098
:10AB1000FFF73AFAFFF7CCF93078FFF75DF92878BC
:10AB2000400000F0FE00FFF72FFA0020FFF72CFA9C
:10AB30000020FFF729FAFFF7BBF93078FFF74CF94F
:10AB40002878400000F0FE00FFF71EFA0020FFF713
:10AB50001BFA0320FFF718FAFFF7AAF93078FFF77E
:10AB60003BF92878400000F0FE00FFF70DFA402086
:10AB7000FFF70AFA2878400000F0FE00FFF704FA19
:10AB800004F5007514F8010FFFF7FEF9AC42F9D196
:10AB9000BDE87040FFF78CB9F4360020EC3400209B
:10ABA000EF34002002484FF40072002103F0E8B9AE
:10ABB000F034002030B41C4C2578022D0C4627D0F0
:10ABC000032D1FD0012D0CD0002808DB1749B1F947
:10ABD0000010814203DD214630BCFFF77BBC30BC56
:10ABE000704712490988891A0C1B24B20028F6DB29
:10ABF0000F49B1F900108142F1DD0146204630BC19
:10AC0000FFF79EBB0A4909880139081A00B2EDE72F
:10AC1000064D07492D880988013D891A281A0C1B01
:10AC200000B224B2D0E700BFF5360020E83400209F
:10AC3000E63400202DE9F04F94B287B0C4EBC43560
:10AC40000E4669000192C4F101051A46B0F1000AEE
:10AC50000BB202932DB21FFA86FB21DBBE4BB3F978
:10AC6000003053451CDD04EB0B0109B2002908DB61
:10AC7000BA4BB3F900308B4203DD0392FFF7F2FACF
:10AC8000039AABEB040109B2002909DBB34BB3F91A
:10AC900000308B4204DD50460392FFF7E3FA039A3B
:10ACA0001FFA8AFA04EB0A0000B2002810DBAA4B54
:10ACB000B3F9003083420BDD002E09DBA74BB3F95B
:10ACC0000030B34204DD31460392FFF7CBFA039A1A
:10ACD000AAEB040000B2002810DB9F4BB3F9003050
:10ACE00083420BDD002E09DB9C4BB3F90030B342ED
:10ACF00004DD31460392FFF7B5FA039A019B002B5E
:10AD000040F320810027D2E00299019B0231013BF0
:10AD100015FA81F59CB209B21BB2ADB20291019352
:10AD20000137BEB20AEB060805EB46050FFA88F8B4
:10AD300001350BEB0401B8F1000F2DB23FB209B29F
:10AD4000C0F2BC80844BB3F90030984580F2D980C2
:10AD500000290DDB8148B0F90000884208DD40463B
:10AD6000CDE904230391FFF77DFADDE90312059B8A
:10AD7000AAEB06090FFA89F9B9F1000FC0F2E580D4
:10AD80004B4540F3C9800029C0F2F4807348B0F904
:10AD90000000884206DD4846CDE90323FFF762FA4A
:10ADA000DDE90323ABEB0401B8F1000F09B216DBB8
:10ADB000984514DA00290DDB6848B0F90000884294
:10ADC00008DD4046CDE903120593FFF74BFADDE9B4
:10ADD00004230399B9F1000F0DDB99450BDA002923
:10ADE00009DB5E4BB3F900308B4204DD4846039229
:10ADF000FFF738FA039A0AEB04080FFA88F80BEB0E
:10AE00000601B8F1000F09B26BDB534BB3F90090A8
:10AE1000C84580F2888000290BDB504BB3F9003025
:10AE20008B4206DD4046CDE90312FFF71BFADDE950
:10AE30000312AAEB040424B2002CC0F29180A145B5
:10AE400078DD0029C0F29280444BB3F900308B4288
:10AE500004DD20460392FFF705FA039AABEB0606E2
:10AE6000B8F1000F36B212DBC84510DA002E0ADB4B
:10AE70003A4BB3F90030B34205DD40463146039208
:10AE8000FFF7F0F9039A002C0EDB4C450CDA002E8C
:10AE90000ADB324BB3F90030B34205DD31462046C0
:10AEA0000392FFF7DFF9039A019BBB424ADD002DB5
:10AEB000BFF62AAFBDF80440ADB231E7AAEB0609F0
:10AEC0000FFA89F9B9F1000F95DB234BB3F9003084
:10AED000994590DA0029BFF659AFABEB040109B2EE
:10AEE0007DE7AAEB040424B2002CDDDB1A4BB3F996
:10AEF00000904C45D8DA0029A6DAABEB060636B24C
:10AF0000C5E7AAEB06090FFA89F9B9F1000FFFF6B8
:10AF100072AF4B453FF737AFABEB0401984509B231
:10AF2000FFF648AF67E7AAEB040424B2002CBBDBB2
:10AF3000A14586DCABEB0606C84536B296DB019B25
:10AF4000BB42B4DC07B0BDE8F08FABEB040109B243
:10AF50000029BFF631AF4EE7EE340020EA3400207E
:10AF6000ABEB060636B2002E82DA9DE7ABEB0606A7
:10AF700036B279E7ABEB040109B219E72DE9F04FDE
:10AF800094B287B0904689B2620002910132091BE7
:10AF900012B209B21F460546FFF70CFEC4EBC433DC
:10AFA0005B001BB2B8F1000F039363DDABB2C4F1D9
:10AFB000010404930023019324B23B4652E0039A18
:10AFC000023214FA82F408F1FF3812B203921FFA27
:10AFD00088F2A4B200920FFA88F81146019A0593FC
:10AFE00002F1010C029A4FEA410A571A049A1FFA19
:10AFF0008CF90AF1010A09EB02000FFA8AFA3FB252
:10B000000FFA8CF600B2524639460196FFF7D2FD90
:10B010000299049E059B4FEA4905A1EB090B0135F6
:10B020000099ADB270182C440FFA8BFB2DB22A4652
:10B03000594600B2FFF7BEFDA6EB0900059B52463C
:10B0400000B23946FFF7B6FD0099059B0093701AD0
:10B050002A46594600B2FFF7ADFD019E009BB04560
:10B0600024B207DD002CAADA1FFA88F2A4B20092FB
:10B070001146B3E707B0BDE8F08F00BF2DE9F04FF0
:10B08000A3EB010883B005464046541B17460093C6
:10B090000E46BDF830B002F01BFF8246204602F09B
:10B0A00017FF8245009B02467FDDBE46AC4639460F
:10B0B00028461F463546A04673466646BD4207DD14
:10B0C000B4462C461E463D4663462746A0EB010883
:10B0D0004046A7EB05091FFA89F9CDE9002302F0E4
:10B0E000F7FE009A019B4FEAD9344FF6FF7104FA3C
:10B0F00089F49E42ACBF0B46012392455A46DFF8C5
:10B10000B4A0CB461FFA80F84FEA640499469646ED
:10B110003ADC002D13DBBAF90020AA420FDD002E25
:10B120003146284672460ADB214BB3F900C0B445CC
:10B1300005DDCDF800E0FFF795F8DDF800E0A4EBC1
:10B14000080214B20135002C2DB292B203DA5A442F
:10B150004E4414B236B2BD42DBDD03B0BDE8F08F21
:10B16000CDF800E0FFF77EF8DDF800E0A4EB080280
:10B1700014B20135002C2DB292B203DA5A444E4477
:10B1800014B236B2BD42E8DC002EEFDBBAF9002083
:10B19000B242EBDD002D294630467246E6DB044B19
:10B1A000B3F900C0AC45DBDCE0E71946304685E783
:10B1B000EA340020EE3400202DE9F04FB94C247819
:10B1C00087B0022CBDF840B0994605460F4692461E
:10B1D00070D0032C3AD0012C23D00029C0F21F815B
:10B1E000B14BB3F9003086B200968B4296B21FFA8B
:10B1F00081F8019640F34E815B461FFA89F602966C
:10B20000FFF79EF8731E4344032C98B21BB23FD144
:10B21000DDE90010A44A12880844111A064609B252
:10B22000D1E0A24BB3F9002091B24B1E9BB21FFAA2
:10B2300087F8A3EB080000B20028C0F2FD80ABB293
:10B2400000931FFA8AF30193294612E0964B1A885D
:10B250001FFA8AF3D11A019383B2C91A002F0093FF
:10B2600009B2C0F2A580914BB3F900201FFA87F80C
:10B270003846904203DA5B465246FFF72BF91FFA35
:10B2800089F30293013B4344032C98B21BB2BFD015
:10B29000012C00F0EE80002BC0F2F280824AB2F95D
:10B2A00000209A4240F3EC80DDE9002111440E4673
:10B2B000284647E07C4B7D490593B3F90030B1F84F
:10B2C00000C0049199B201F1FF3E1FFA8EFE1FFAF1
:10B2D00087F890B20393AEEB0803ACEB0006019045
:10B2E0001BB2A8B20090002BA6EB000000B2C0F287
:10B2F0008C800399994240F3DB8019461FFA89F646
:10B300005B460296FFF71CF8731E43449BB20499F8
:10B31000059AB1F800C0B2F900200392DDE90010EF
:10B32000084491B2064601F1FF3EACEB00001FFA63
:10B330008EFE00B2AEEB03031BB2002B5ADB039A66
:10B34000934252DA194652465B46FEF7F9FF022C49
:10B3500047D0032C00F08580012C16D03946002DF3
:10B3600009DB524BB3F90030AB4204DD28465B46A3
:10B370004A46FFF7AFF8013E30B25B464A463946CF
:10B3800007B0BDE8F04FFFF715BC484B1988029B8A
:10B390004344C81A00B2002DEDDB434BB3F9003033
:10B3A000AB42E8DD29465B464A46FEF7C9FFE2E7C5
:10B3B00018461FFA89F3019E02931FFA87F8013B92
:10B3C000434406441BB2002B4DDB384AB2F900203F
:10B3D0009A42BCDD184652465B46FFF77BF8022CCA
:10B3E000B7D1324B0493304B0593049BB3F800C0A4
:10B3F000059B1988029B9844009B0CF1FF35ED1AC0
:10B40000A1EB08012DB209B2A9E71FFA89F3DDE922
:10B4100000260293013B434416449BB28AE79BB249
:10B4200082B202931FFA81F8013B434400921FFA53
:10B430008AF21BB201922EE71FFA89F0AEB2029097
:10B440000138404400961FFA8AF680B201961B1A12
:10B450001BB2002B19DBDDE9001008440646294623
:10B46000B6E7114B1A88009B551EED1A2DB23846CF
:10B4700091E70E4BB3F9002091B24B1E9BB2E6E769
:10B48000DDE9003213441E4668E7DDE9003213446B
:10B490001E467CE71FFA89F30293013B43441BB22B
:10B4A000F9E600BFF5360020E6340020E83400203D
:10B4B0001FFA89F30293013B43449BB227E700BF85
:10B4C0002DE9F84F17188742BDF828B033DD9846AC
:10B4D000244BDFF894A01D78DFF8909004460E46C8
:10B4E00011E0012D29D020463146002807DBBAF9AA
:10B4F0000030834203DD5B464246FEF7EBFF01343A
:10B5000024B2BC4217DA022D1FD0032DE9D1B9F8BD
:10B5100000100139091B09B230460029EFDBB9F9E7
:10B5200000308B42EBDD01345B46424624B2FEF72D
:10B5300007FFBC42E7DBBDE8F88FBAF80000A0EBDC
:10B540000800801B00B22146E7E7BAF80000B9F80E
:10B5500000100138A1EB0801001B891B00B209B2E1
:10B56000C3E700BFF5360020E8340020E6340020B1
:10B570002DE9F84F284A294BB2F90070B3F9008041
:10B58000002F31DD264BDFF89CA01E78DFF8989065
:10B59000002583462C460FE0012E27D0BAF9003053
:10B5A0000021A34204DD20465B464246FEF792FF9F
:10B5B00001352CB2A74217DD022EA8B21ED0032EF1
:10B5C000EAD1B9F900305C1E241A24B2002CEFDB5A
:10B5D00000209C42ECDA013521465B4642462CB203
:10B5E000FEF7AEFEA742E7DCBDE8F88FBAF8000030
:10B5F000B9F90030A0EB080000B2EAE7BAF9003070
:10B60000B9F900105C1E241A24B2002CD0DBA1EB87
:10B61000080109B2C5E700BFEE340020EA3400207B
:10B62000F5360020E8340020E63400202DE9F04F04
:10B63000A04C8FB0B4F90040BDF860500A9407EEFA
:10B64000105A84429DF86450049540F3968007EEAA
:10B65000903A994BB3F900300C938B4240F38D80B4
:10B66000062313FB0503002B40F3878001EBC50382
:10B67000002B40F38280914B1B78002B00F015814A
:10B6800083B202EB820208930793BDF810300D924B
:10B6900000938AB20023DFF83082DFF830920B92F9
:10B6A0000993099A052A00F0FD80854B0D990B44FA
:10B6B0009B5C0193BDF91C30049A05939F18BDF95A
:10B6C000203006930B9E002302930FFA82FA019B0F
:10B6D000DB0769D5049B012B00F0B680059CBC42BA
:10B6E0000FFA86FB30DA774B1D7817EE903A12E0AE
:10B6F000012D45D020465946002808DBB8F9002026
:10B70000824204DD52460393FEF7E4FE039B0134BC
:10B7100024B2BC4218DA022D3AD0032DE8D1B9F890
:10B7200000100139091B09B258460029EFDBB9F9AD
:10B7300000208A42EBDD0134524624B20393FEF727
:10B74000FFFDBC42039BE6DB009B019A1E44029B6B
:10B7500001335208082B0293B6B20192B7D1079B6E
:10B760000099089A0B4409990132013192B29BB2B7
:10B77000062909910892079393D10FB0BDE8F08F85
:10B78000B8F80000009A801A801B00B22146CCE76E
:10B79000B8F80000B9F80010009A0138891A001BA7
:10B7A000891B00B209B2A7E717EE102A17EE901A0C
:10B7B0008A42C9D0049B012B5ED0059CBC420FFA83
:10B7C00086FBC1DA3F4B1D7817EE103A12E0012DCF
:10B7D00026D020465946002808DBB8F900208242CE
:10B7E00004DD52460393FEF775FE039B013424B239
:10B7F000BC42A9DA022D1BD0032DE8D1B9F8001004
:10B800000139091B09B258460029EFDBB9F90020BC
:10B810008A42EBDD52460393FEF792FD039BE5E778
:10B82000B8F80000009A801A801B214600B2EBE7AE
:10B83000B8F80000B9F80010009A0138891A001B06
:10B84000891B00B209B2C6E706980028FFF67CAF54
:10B850000A9B83427FF778AF0B9B029A991809B233
:10B860000029FFF671AF0C9B8B427FF76DAF17EE8F
:10B87000902AFEF7F7FC67E706980028FFF664AF0A
:10B880000A9B83427FF760AF0B9B0299591809B25C
:10B890000029FFF659AF0C9B8B427FF755AFFEF79F
:10B8A000E1FC51E70023019304E7AF2A84BF013292
:10B8B000D2B2E5E6EE340020EA340020043D002058
:10B8C000180F0300F5360020E8340020E63400208D
:10B8D0000A2838D00D2801D1012070472DE9F04108
:10B8E0001F49204E204A214F0D78B2F800C0B6F90A
:10B8F0000040B7F900801E4B82B002460195CDF89A
:10B9000000C020461B884146FFF790FE194B05EB0F
:10B91000450004EB40041B7824B23480A9B273B113
:10B92000154BB3F90030A5EB850503EB4505AC429B
:10B9300005DD08EBC1080023A7F800803380012053
:10B9400002B0BDE8F081094A054913880878054925
:10B9500003EBC0030020088013800120704700BF64
:10B96000FA360020F0360020F6360020F2360020AD
:10B97000F8360020053D0020EE340020024A034B3B
:10B9800010801980704700BFF0360020F23600208A
:10B99000024B012838BF012018707047FA3600208A
:10B9A000024A034B10801880704700BFF636002013
:10B9B000F836002075DF704776DF70477FDF70470D
:10B9C0008ADF70478CDF70478FDF70470120704738
:10B9D0000146014801F028BF1437002030B5038824
:10B9E0003B2B87B004461CD80F2B23D9103B2B2BA5
:10B9F00020D8DFE803F02B1F1F411F1F1F1F1F1F31
:10BA00001F4A1F581F7A1F211F1F1F1F1F1F1F1F85
:10BA10001F1F1F1F1F1F1F1F1F1F1F1F1F1F1F1F36
:10BA20001F18562B06D1A0881321FFF7C5FF08B1B8
:10BA3000FBF738FE07B030BD00238088ADF8143026
:10BA400005A9FFF7C1FF0028F4D0F1E7384B3949C9
:10BA50001888000440F00300FAF794FEA1883648E5
:10BA6000002201F0F1FF00284DD1A188334801F0F8
:10BA7000B3F80028DED0DBE7002380881A46852152
:10BA8000FFF79CFF0028D5D0D2E7047A012C3DD0E7
:10BA9000022CCFD1264B2A491888000440F003001D
:10BAA000FAF770FEC6E7818C264A006A00F02AFE8B
:10BAB00018B3254A2549012304F10A00FFF782FF44
:10BAC0000028B7D1E17BA27B194B257C1888637BCA
:10BAD0000093CDE9012103950004237BE27A1C4900
